{
  "_format": "hh-sol-artifact-1",
  "contractName": "Engine",
  "sourceName": "contracts/Engine.sol",
  "abi": [
    {
      "inputs": [
        {
          "internalType": "uint256",
          "name": "nb1",
          "type": "uint256"
        },
        {
          "internalType": "uint256",
          "name": "nb2",
          "type": "uint256"
        }
      ],
      "name": "bitsoper",
      "outputs": [
        {
          "internalType": "uint256",
          "name": "",
          "type": "uint256"
        }
      ],
      "stateMutability": "pure",
      "type": "function"
    }
  ],
  "bytecode": "0x608060405234801561001057600080fd5b50610134806100206000396000f3fe6080604052348015600f57600080fd5b506004361060285760003560e01c8063f40536c414602d575b600080fd5b60436004803603810190603f9190607c565b6057565b604051604e919060c2565b60405180910390f35b60008082841690508091505092915050565b60008135905060768160ea565b92915050565b60008060408385031215609057608f60e5565b5b6000609c858286016069565b925050602060ab858286016069565b9150509250929050565b60bc8160db565b82525050565b600060208201905060d5600083018460b5565b92915050565b6000819050919050565b600080fd5b60f18160db565b811460fb57600080fd5b5056fea26469706673582212203bdb28f5238005f17544d7e07fd56c7a9e4dcc637fca1f49aeb8402baf45413364736f6c63430008070033",
  "linkReferences": {},
  "deployedLinkReferences": {}
}