{"contracts/Engine.sol":{"Engine":{"abi":[{"inputs":[{"internalType":"uint256","name":"nb1","type":"uint256"},{"internalType":"uint256","name":"nb2","type":"uint256"}],"name":"bitsoper","outputs":[{"internalType":"uint256","name":"","type":"uint256"}],"stateMutability":"pure","type":"function"}],"evm":{"bytecode":{"linkReferences":{},"object":"608060405234801561001057600080fd5b50610134806100206000396000f3fe6080604052348015600f57600080fd5b506004361060285760003560e01c8063f40536c414602d575b600080fd5b60436004803603810190603f9190607c565b6057565b604051604e919060c2565b60405180910390f35b60008082841690508091505092915050565b60008135905060768160ea565b92915050565b60008060408385031215609057608f60e5565b5b6000609c858286016069565b925050602060ab858286016069565b9150509250929050565b60bc8160db565b82525050565b600060208201905060d5600083018460b5565b92915050565b6000819050919050565b600080fd5b60f18160db565b811460fb57600080fd5b5056fea26469706673582212203bdb28f5238005f17544d7e07fd56c7a9e4dcc637fca1f49aeb8402baf45413364736f6c63430008070033","opcodes":"PUSH1 0x80 PUSH1 0x40 MSTORE CALLVALUE DUP1 ISZERO PUSH2 0x10 JUMPI PUSH1 0x0 DUP1 REVERT JUMPDEST POP PUSH2 0x134 DUP1 PUSH2 0x20 PUSH1 0x0 CODECOPY PUSH1 0x0 RETURN INVALID PUSH1 0x80 PUSH1 0x40 MSTORE CALLVALUE DUP1 ISZERO PUSH1 0xF JUMPI PUSH1 0x0 DUP1 REVERT JUMPDEST POP PUSH1 0x4 CALLDATASIZE LT PUSH1 0x28 JUMPI PUSH1 0x0 CALLDATALOAD PUSH1 0xE0 SHR DUP1 PUSH4 0xF40536C4 EQ PUSH1 0x2D JUMPI JUMPDEST PUSH1 0x0 DUP1 REVERT JUMPDEST PUSH1 0x43 PUSH1 0x4 DUP1 CALLDATASIZE SUB DUP2 ADD SWAP1 PUSH1 0x3F SWAP2 SWAP1 PUSH1 0x7C JUMP JUMPDEST PUSH1 0x57 JUMP JUMPDEST PUSH1 0x40 MLOAD PUSH1 0x4E SWAP2 SWAP1 PUSH1 0xC2 JUMP JUMPDEST PUSH1 0x40 MLOAD DUP1 SWAP2 SUB SWAP1 RETURN JUMPDEST PUSH1 0x0 DUP1 DUP3 DUP5 AND SWAP1 POP DUP1 SWAP2 POP POP SWAP3 SWAP2 POP POP JUMP JUMPDEST PUSH1 0x0 DUP2 CALLDATALOAD SWAP1 POP PUSH1 0x76 DUP2 PUSH1 0xEA JUMP JUMPDEST SWAP3 SWAP2 POP POP JUMP JUMPDEST PUSH1 0x0 DUP1 PUSH1 0x40 DUP4 DUP6 SUB SLT ISZERO PUSH1 0x90 JUMPI PUSH1 0x8F PUSH1 0xE5 JUMP JUMPDEST JUMPDEST PUSH1 0x0 PUSH1 0x9C DUP6 DUP3 DUP7 ADD PUSH1 0x69 JUMP JUMPDEST SWAP3 POP POP PUSH1 0x20 PUSH1 0xAB DUP6 DUP3 DUP7 ADD PUSH1 0x69 JUMP JUMPDEST SWAP2 POP POP SWAP3 POP SWAP3 SWAP1 POP JUMP JUMPDEST PUSH1 0xBC DUP2 PUSH1 0xDB JUMP JUMPDEST DUP3 MSTORE POP POP JUMP JUMPDEST PUSH1 0x0 PUSH1 0x20 DUP3 ADD SWAP1 POP PUSH1 0xD5 PUSH1 0x0 DUP4 ADD DUP5 PUSH1 0xB5 JUMP JUMPDEST SWAP3 SWAP2 POP POP JUMP JUMPDEST PUSH1 0x0 DUP2 SWAP1 POP SWAP2 SWAP1 POP JUMP JUMPDEST PUSH1 0x0 DUP1 REVERT JUMPDEST PUSH1 0xF1 DUP2 PUSH1 0xDB JUMP JUMPDEST DUP2 EQ PUSH1 0xFB JUMPI PUSH1 0x0 DUP1 REVERT JUMPDEST POP JUMP INVALID LOG2 PUSH5 0x6970667358 0x22 SLT KECCAK256 EXTCODESIZE 0xDB 0x28 CREATE2 0x23 DUP1 SDIV CALL PUSH22 0x44D7E07FD56C7A9E4DCC637FCA1F49AEB8402BAF4541 CALLER PUSH5 0x736F6C6343 STOP ADDMOD SMOD STOP CALLER "},"methodIdentifiers":{"bitsoper(uint256,uint256)":"f40536c4"}}}}}