{
  "_format": "hh-sol-artifact-1",
  "contractName": "Game",
  "sourceName": "contracts/Game.sol",
  "abi": [
    {
      "inputs": [
        {
          "internalType": "uint256",
          "name": "nb1",
          "type": "uint256"
        },
        {
          "internalType": "uint256",
          "name": "nb2",
          "type": "uint256"
        }
      ],
      "name": "bitsoper",
      "outputs": [
        {
          "internalType": "uint256",
          "name": "",
          "type": "uint256"
        }
      ],
      "stateMutability": "pure",
      "type": "function"
    },
    {
      "inputs": [
        {
          "internalType": "uint256",
          "name": "userInput",
          "type": "uint256"
        }
      ],
      "name": "gameResults",
      "outputs": [
        {
          "internalType": "bool",
          "name": "result",
          "type": "bool"
        }
      ],
      "stateMutability": "nonpayable",
      "type": "function"
    }
  ],
  "bytecode": "0x60806040526000805534801561001457600080fd5b50610442806100246000396000f3fe608060405234801561001057600080fd5b50600436106100365760003560e01c8063f40536c41461003b578063fdba1b7c1461006b575b600080fd5b61005560048036038101906100509190610196565b61009b565b604051610062919061027a565b60405180910390f35b61008560048036038101906100809190610169565b6100ad565b604051610092919061025f565b60405180910390f35b60008082841690508091505092915050565b6000806100ba60016100f9565b905060006100c860016100f9565b90506100d4828261009b565b6001819055508360015414156100ed57600192506100f2565b600092505b5050919050565b600080600081548092919061010d906102dd565b919050555081423360005460405160200161012a93929190610222565b6040516020818303038152906040528051906020012060001c61014d9190610354565b9050919050565b600081359050610163816103f5565b92915050565b60006020828403121561017f5761017e6103e3565b5b600061018d84828501610154565b91505092915050565b600080604083850312156101ad576101ac6103e3565b5b60006101bb85828601610154565b92505060206101cc85828601610154565b9150509250929050565b6101e76101e282610295565b610326565b82525050565b6101f6816102a7565b82525050565b610205816102d3565b82525050565b61021c610217826102d3565b61034a565b82525050565b600061022e828661020b565b60208201915061023e82856101d6565b60148201915061024e828461020b565b602082019150819050949350505050565b600060208201905061027460008301846101ed565b92915050565b600060208201905061028f60008301846101fc565b92915050565b60006102a0826102b3565b9050919050565b60008115159050919050565b600073ffffffffffffffffffffffffffffffffffffffff82169050919050565b6000819050919050565b60006102e8826102d3565b91507fffffffffffffffffffffffffffffffffffffffffffffffffffffffffffffffff82141561031b5761031a610385565b5b600182019050919050565b600061033182610338565b9050919050565b6000610343826103e8565b9050919050565b6000819050919050565b600061035f826102d3565b915061036a836102d3565b92508261037a576103796103b4565b5b828206905092915050565b7f4e487b7100000000000000000000000000000000000000000000000000000000600052601160045260246000fd5b7f4e487b7100000000000000000000000000000000000000000000000000000000600052601260045260246000fd5b600080fd5b60008160601b9050919050565b6103fe816102d3565b811461040957600080fd5b5056fea264697066735822122051202989d3279985ecfd5e5c0ea1b4625982c84f1cad726784f3fd68babc042964736f6c63430008070033",
  "linkReferences": {},
  "deployedLinkReferences": {}
}